:060000000A128A11E62F2E
:1008500064008001840A0406031900340406292C6C
:10086000F000831203130C1E362C372C312C700829
:100870009900080029348934F934883409348934DA
:10088000CA348834E5348834EC34883400300A12B1
:100890008A11A3240A128A1101300A128A11A32490
:1008A0000A128A11080083120313981C582C592C21
:1008B0005B2C181218168C1E5E2C5F2C5B2C1A08F1
:1008C00008007E088A007F0882000A128A116124CB
:1008D0000A128A118000840A04087D060319003474
:1008E000FF0A0319FE0A652C0430F1008930F2007A
:1008F0000A128A11FF240A128A110A128A116C261E
:100900000A128A11013A0319862C872C892C0310AC
:100910008A2C031408008316031307138717831206
:10092000031398178316031318150A309900181328
:1009300083120313181383160313181298168312C5
:10094000031318160800F300831203130811730829
:100950000A128A11DD240A128A11831203138815E0
:100960001A30F200F830F100F10BB42CF20BB42C79
:1009700000008312031388110800F400B430F10062
:100980008830F2000A128A11FF240A128A117408B0
:10099000303E0A128A1130240A128A110130F10005
:1009A0008930F2000A128A11FF240A128A110A12EF
:1009B0008A116C260A128A110800F000701CE12CC2
:1009C000E22CE62C831203130816E92C831203137E
:1009D0000812F01CEC2CED2CEF2C8816F02C881251
:1009E000701DF32CF42CF62C0817F72C0813F01DAF
:1009F000FA2CFB2CFD2C8817FE2C88130800142DD4
:100A00007208FF00710884000A128A1500200A1279
:100A10008A110A128A1130240A128A110130F10750
:100A20000318F20A0030F207720883120313FF0062
:100A3000710884000A128A1500200A128A11003AED
:100A4000031D232D242D002D0800F40074080F39F8
:100A5000F1007108F2007408F039F1007108F30038
:100A60008312031308157308F10004300310F10C0E
:100A7000FF3E031D362D71080A128A11DD240A1269
:100A80008A11831203138815881172080A128A11B9
:100A9000DD240A128A1183120313881588110800B5
:100AA000A930F1008830F2000A128A11FF240A12DC
:100AB0008A117408F1007508F2000A128A11FF24E5
:100AC0000A128A111230F1008930F2000A128A11DA
:100AD000FF240A128A117608F1007708F2000A1240
:100AE0008A11FF240A128A110E30F1008930F200B7
:100AF0000A128A11FF240A128A110A128A116C261C
:100B00000A128A110800FA01FB01A82D7A0875075C
:100B1000F8007608F7000318F70AFA1F902DF7037C
:100B20007708F900790883120313FF00780884001E
:100B30000A128A1500200A128A110A128A11252522
:100B40000A128A110130FA070318FB0A0030FB076A
:100B50007A087507F8007608F7000318F70AFA1FF5
:100B6000B22DF7037708F900790883120313FF0009
:100B7000780884000A128A1500200A128A11003AA5
:100B8000031DC32DC42D862D0800F7007703031D18
:100B9000CA2DCB2DEE2D74087F3EF5007508FA00A6
:100BA0007A08F50004300310F50CFF3E031DD32D29
:100BB0007508F6007608F8007A080F39F500750810
:100BC000F90078080A128A11A3240A128A117908F6
:100BD0000A128A11A3240A128A11162E02307706ED
:100BE000031DF32DF42D162E7408BF3EF500750875
:100BF000FA007A08F50004300310F50CFF3E031DDF
:100C0000FC2D7508F6007608F8007A080F39F50013
:100C10007508F90078080A128A11A3240A128A11A9
:100C200079080A128A11A3240A128A1108000030D6
:100C30000A128A11DD240A128A1103300A128A115B
:100C4000A3240A128A112130F5007630F400F40B47
:100C5000272EF50B272E000003300A128A11A32439
:100C60000A128A114830F5006C30F400F40B362E6D
:100C7000F50B362E000003300A128A11A3240A1243
:100C80008A1102300A128A11A3240A128A11023030
:100C90000A128A11A3240A128A1108300A128A1130
:100CA000A3240A128A1100300A128A11A3240A12FC
:100CB0008A110C300A128A11A3240A128A110030F8
:100CC0000A128A11A3240A128A1106300A128A1102
:100CD000A3240A128A1108002C3084000630FF0079
:100CE00083138001840AFF0B702E203084004A3069
:100CF000F0000408F1000C30F20070088400831347
:100D00000008F300F00A7108840073088000F10AFB
:100D1000F20B7D2E83120313B401B40AF82E0A12CB
:100D20008A1153240A128A11F000700883120313E7
:100D3000B200B5013508F0007007203E840083132F
:100D40000008F100840A0008F20035082C3E8400F7
:100D500000087107840072080318720AFF000A1263
:100D60008A1500200A128A113206031DB82EB92EE8
:100D7000E92E0130F00035082C3E84007008831302
:100D800080073508183E840088300318013EFF00B4
:100D90000A128A1500200A128A11F00035082C3E2A
:100DA0008400831300087006031DD72ED82EEE2E64
:100DB0003508123E840088300318013EFF000A12F5
:100DC0008A1500200A128A11F0007008B300B401DD
:100DD000EE2E35082C3E8400831380010130F00094
:100DE0007008B50706303502031CF72EF82E9A2E30
:100DF0003408031DFC2EFD2E8F2E330808008316A9
:100E0000031388010A128A118B240A128A110A120A
:100E10008A1117260A128A11F401F40A01300A1203
:100E20008A11C5250A128A114030F5008830F60073
:100E30000A128A1183250A128A11F401F40A023077
:100E40000A128A11C5250A128A111E30F50088304F
:100E5000F6000A128A1183250A128A11273083129A
:100E60000313B8000D30B7002530B600B60B362F8F
:100E7000B70B362FB80B362F3D2F0A128A11462496
:100E80000A128A11F401F40A01300A128A11C525E6
:100E90000A128A117930F5008830F6000A128A1198
:100EA00083250A128A110A128A1174240A128A11DD
:100EB000031C5B2F5C2F422FF401F40A01300A124D
:100EC0008A11C5250A128A112F30F5008830F600E4
:100ED0000A128A1183250A128A11273083120313FA
:100EE000B8000D30B7002530B600B60B752FB70B24
:100EF000752FB80B752F7C2F0A128A1146240A12FF
:100F00008A1102300A128A11BD240A128A11F401D0
:100F1000F40A01300A128A11C5250A128A115D30BD
:100F2000F5008830F6000A128A1183250A128A1108
:100F3000273083120313B8000D30B7002530B600F8
:100F4000B60BA02FB70BA02FB80BA02FA72F0A12FC
:100F50008A1146240A128A112230F4008930F500E1
:100F6000BF30F6008830F7000A128A1150250A12A5
:100F70008A11F401F40A01300A128A11C5250A12F5
:100F80008A116B30F5008830F6000A128A11832529
:100F90000A128A11273083120313B8000D30B700EC
:100FA0002530B600B60BD22FB70BD22FB80BD22FED
:100FB000D92FDD30F5008830F6000A128A1183251A
:100FC0000A128A11D92F0A128A1100288313563067
:100FD000FD000430FE003A30FF004A3084000A125F
:100FE0008A1165240A128A11393084004A300A12A3
:100FF0008A1128240A128A1183010A128A11FF2EEB
:10100000FF1B0A2883137F1883170008840A03191B
:10101000FF0A08007F087F398A000408840A031940
:10102000FF0A8200013402340334043405340634E8
:101030000234053404340934063406344534533458
:1010400050343534323436343634203477346934DD
:1010500074346834203450344934433400344534D3
:1010600053345034203469347334203463346F344F
:101070006E346E34653463347434653464340034EF
:1010800043346934723463347534693474342034CD
:10109000443469346734653473347434003441340F
:1010A00054342B344334493450345334543441345D
:1010B000523454343D3422340034453453345034A3
:1010C0002034733465347434203461347334203400
:1010D00041345034003441345034203463346F345C
:1010E0006E3466346934673475347234653464340C
:1010F000003445345334503420346E346F347434F7
:10110000203466346F3475346E34643400344134C2
:1011100054342B34433449345034533445344E34EE
:1011200044343D340034413454342B344334573444
:101130005134413450340D340A3400344134543481
:101140002B34433449344634533452340D340A3446
:101150000034413454342B34433457344A3441340A
:1011600050343D3422340034413454342B3443342D
:1011700057344D344F34443445343D3400343134E5
:101180003134313431343134313431343134313437
:10119000313400346E346F34203463346834613455
:1011A0006E34673465340034413454342B34523453
:1011B000533454340D340A340034533474346134A9
:1011C0006E3464344234793400344C3469346E34CF
:1011D0006B3465346434003455346E346C346934A3
:1011E0006E346B3400342B344934503444342C3452
:1011F00000347234653461346434793400340D342D
:101200000A340D340A340034413454340D340A3471
:1012100000344634413449344C34003422340D34E3
:101220000A34003422342C3422340034413454340F
:101230004534003454344334503400345534443449
:1012400050340034683475346134003422342C3422
:0E12500000344F344B340034253475340034F0
:08400000FF3FFF3FFF3FFF3FC0
:02400E007A3FF7
:00000001FF
